:100000000C9438000C9455000C9455000C94550039
:100010000C9455000C9455000C9455000C9455000C
:100020000C9455000C9455000C9455000C945500FC
:100030000C9455000C9455000C9455000C945500EC
:100040000C9455000C9455000C9455000C945500DC
:100050000C9455000C9455000C9455000C945500CC
:100060000C9455000C9455000C9455000C945500BC
:1000700011241FBECFEFD4E0DEBFCDBF11E0A0E062
:10008000B1E0EAEAF4E002C005900D92A232B107B5
:10009000D9F721E0A2E2B1E001C01D92AA37B20770
:1000A000E1F70E9457000C9453020C9400000F9348
:1000B0001F93CF930E949E00E4E7F1E080E091E07F
:1000C00091838083938382832481358147E050E04C
:1000D00061E070E08EE091E00E94EC0184E6EFE3E5
:1000E000FCE93197F1F700C000008150C1F7C3E08F
:1000F00004E711E0F801648175818EE290E00E94CE
:10010000BC0184E6EFE3FCE93197F1F700C00000A1
:100110008150C1F7C15071F7209178013091790178
:1001200042E050E061E070E086E191E00E94EC0185
:1001300090E080E0CF911F910F91089587E689B9F3
:1001400088E18AB90895CF93C82F873049F08A3063
:10015000A1F05D9BFECFCCB990E080E0CF910895F7
:10016000209178013091790147E050E061E070E042
:1001700089E191E00E94EC01EFCF8DE00E94A300A5
:10018000E8CF9F92AF92BF92CF92DF92EF92FF9211
:100190000F931F93CF93DF932091720130917301DE
:1001A000232BD9F0E0917201F0917301CF010196F8
:1001B000909373018093720180818A3009F4D1C0D9
:1001C00090E0DF91CF911F910F91FF90EF90DF9022
:1001D000CF90BF90AF909F9008958C01C2E2D1E084
:1001E0006894992495F86E010F2EF1E2AF2EF1E09C
:1001F000BF2EF02D1BC08AE08883B8010E94A300A7
:1002000082E291E09093730180937201CBCF892DAC
:1002100091E0C137D90709F440C07E01EFEFEE1A33
:10022000FE0A8883B8010E94A300E7015F9BFECF0E
:100230005C999CC05B999DC08CB18D30E1F28A3095
:10024000D1F2893021F390EE980F9F3508F3803A70
:10025000F8F6823109F46BC038F1873109F440C0F7
:100260008F3751F1853111F781E0C232D807F1F2B1
:10027000E8F2B80188E00E94A300B801892D0E942D
:10028000A300B80188E00E94A3002197F1E0C232E8
:10029000DF0779F7E5012196C9CFB80187E00E9411
:1002A000A300C1E7D1E0C2CF833019F48FEF9FEFF5
:1002B00088CF883009F0BACF91E0C232D90709F06F
:1002C00008F4B4CFB80188E00E94A300B801892DDA
:1002D0000E94A300B80188E00E94A3002197A6CF46
:1002E000F1E0C232DF0709F008F4A0CFFE01319738
:1002F0008081803209F49ACF7E0181E0E81AF1080A
:10030000B80188E00E94A300B801892D0E94A300D3
:10031000B80188E00E94A300E701EC14FD0409F491
:1003200085CFF70182917F01803251F77FCFB801ED
:100330008DE00E94A300E1E0C232DE0709F008F47C
:1003400075CF0F2EF2E2EF2EF1E0FF2EF02DB80167
:10035000F70181917F010E94A300CE15DF05B9F757
:1003600065CF10927301109272012ACF8EEF9FEF2A
:1003700028CF8FEF9FEF25CF0F931F93CF93DF935E
:10038000182F092FEB018B8181FD09C01FEF0FEFA3
:10039000812F902FDF91CF911F910F91089582FFB0
:1003A00014C02E813F818C819D81281739073CF430
:1003B000E881F981CF0101969983888310838E812A
:1003C0009F8101969F838E83E3CFE885F985812FF6
:1003D0000995892BA1F3DACFB0E0A0E0E2EFF1E0DC
:1003E0000C9422025B014A017901D90113962C91E8
:1003F000D0E0C0E021FF1AC0C815D905B9F08C01C2
:100400006C01CA0CDB1C0CC00F5F1F4FD701189684
:10041000ED91FC91B701DC018C910995892B31F4A8
:10042000C8010C151D0581F72196E6CFCE01CDB789
:10043000DEB7ECE00C943E022F923F924F925F9217
:100440006F927F928F929F92AF92BF92CF92DF92E4
:10045000EF92FF920F931F93CF93DF93CDB7DEB749
:10046000CA1BDB0B0FB6F894DEBF0FBECDBF0994DD
:100470002A88398848885F846E847D848C849B8434
:10048000AA84B984C884DF80EE80FD800C811B8142
:10049000AA81B981CE0FD11D0FB6F894DEBF0FBE71
:0A04A000CDBFED010895F894FFCFE1
:1004AA000000000300000000A300C1000000427920
:1004BA00652D627965000A20002A72696E672A0A28
:0204CA00000030
:00000001FF
